{
  "contractName": "BRZ",
  "abi": [
    {
      "inputs": [],
      "stateMutability": "nonpayable",
      "type": "constructor"
    },
    {
      "anonymous": false,
      "inputs": [
        {
          "indexed": true,
          "internalType": "address",
          "name": "owner",
          "type": "address"
        },
        {
          "indexed": true,
          "internalType": "address",
          "name": "spender",
          "type": "address"
        },
        {
          "indexed": false,
          "internalType": "uint256",
          "name": "value",
          "type": "uint256"
        }
      ],
      "name": "Approval",
      "type": "event"
    },
    {
      "anonymous": false,
      "inputs": [
        {
          "indexed": false,
          "internalType": "address",
          "name": "account",
          "type": "address"
        }
      ],
      "name": "Paused",
      "type": "event"
    },
    {
      "anonymous": false,
      "inputs": [
        {
          "indexed": true,
          "internalType": "bytes32",
          "name": "role",
          "type": "bytes32"
        },
        {
          "indexed": true,
          "internalType": "bytes32",
          "name": "previousAdminRole",
          "type": "bytes32"
        },
        {
          "indexed": true,
          "internalType": "bytes32",
          "name": "newAdminRole",
          "type": "bytes32"
        }
      ],
      "name": "RoleAdminChanged",
      "type": "event"
    },
    {
      "anonymous": false,
      "inputs": [
        {
          "indexed": true,
          "internalType": "bytes32",
          "name": "role",
          "type": "bytes32"
        },
        {
          "indexed": true,
          "internalType": "address",
          "name": "account",
          "type": "address"
        },
        {
          "indexed": true,
          "internalType": "address",
          "name": "sender",
          "type": "address"
        }
      ],
      "name": "RoleGranted",
      "type": "event"
    },
    {
      "anonymous": false,
      "inputs": [
        {
          "indexed": true,
          "internalType": "bytes32",
          "name": "role",
          "type": "bytes32"
        },
        {
          "indexed": true,
          "internalType": "address",
          "name": "account",
          "type": "address"
        },
        {
          "indexed": true,
          "internalType": "address",
          "name": "sender",
          "type": "address"
        }
      ],
      "name": "RoleRevoked",
      "type": "event"
    },
    {
      "anonymous": false,
      "inputs": [
        {
          "indexed": true,
          "internalType": "address",
          "name": "from",
          "type": "address"
        },
        {
          "indexed": true,
          "internalType": "address",
          "name": "to",
          "type": "address"
        },
        {
          "indexed": false,
          "internalType": "uint256",
          "name": "value",
          "type": "uint256"
        }
      ],
      "name": "Transfer",
      "type": "event"
    },
    {
      "anonymous": false,
      "inputs": [
        {
          "indexed": false,
          "internalType": "address",
          "name": "account",
          "type": "address"
        }
      ],
      "name": "Unpaused",
      "type": "event"
    },
    {
      "inputs": [],
      "name": "ADMIN_ROLE",
      "outputs": [
        {
          "internalType": "bytes32",
          "name": "",
          "type": "bytes32"
        }
      ],
      "stateMutability": "view",
      "type": "function",
      "constant": true
    },
    {
      "inputs": [],
      "name": "DEFAULT_ADMIN_ROLE",
      "outputs": [
        {
          "internalType": "bytes32",
          "name": "",
          "type": "bytes32"
        }
      ],
      "stateMutability": "view",
      "type": "function",
      "constant": true
    },
    {
      "inputs": [
        {
          "internalType": "address",
          "name": "owner",
          "type": "address"
        },
        {
          "internalType": "address",
          "name": "spender",
          "type": "address"
        }
      ],
      "name": "allowance",
      "outputs": [
        {
          "internalType": "uint256",
          "name": "",
          "type": "uint256"
        }
      ],
      "stateMutability": "view",
      "type": "function",
      "constant": true
    },
    {
      "inputs": [
        {
          "internalType": "address",
          "name": "spender",
          "type": "address"
        },
        {
          "internalType": "uint256",
          "name": "amount",
          "type": "uint256"
        }
      ],
      "name": "approve",
      "outputs": [
        {
          "internalType": "bool",
          "name": "",
          "type": "bool"
        }
      ],
      "stateMutability": "nonpayable",
      "type": "function"
    },
    {
      "inputs": [
        {
          "internalType": "address",
          "name": "account",
          "type": "address"
        }
      ],
      "name": "balanceOf",
      "outputs": [
        {
          "internalType": "uint256",
          "name": "",
          "type": "uint256"
        }
      ],
      "stateMutability": "view",
      "type": "function",
      "constant": true
    },
    {
      "inputs": [
        {
          "internalType": "address",
          "name": "spender",
          "type": "address"
        },
        {
          "internalType": "uint256",
          "name": "subtractedValue",
          "type": "uint256"
        }
      ],
      "name": "decreaseAllowance",
      "outputs": [
        {
          "internalType": "bool",
          "name": "",
          "type": "bool"
        }
      ],
      "stateMutability": "nonpayable",
      "type": "function"
    },
    {
      "inputs": [
        {
          "internalType": "bytes32",
          "name": "role",
          "type": "bytes32"
        }
      ],
      "name": "getRoleAdmin",
      "outputs": [
        {
          "internalType": "bytes32",
          "name": "",
          "type": "bytes32"
        }
      ],
      "stateMutability": "view",
      "type": "function",
      "constant": true
    },
    {
      "inputs": [
        {
          "internalType": "bytes32",
          "name": "role",
          "type": "bytes32"
        },
        {
          "internalType": "uint256",
          "name": "index",
          "type": "uint256"
        }
      ],
      "name": "getRoleMember",
      "outputs": [
        {
          "internalType": "address",
          "name": "",
          "type": "address"
        }
      ],
      "stateMutability": "view",
      "type": "function",
      "constant": true
    },
    {
      "inputs": [
        {
          "internalType": "bytes32",
          "name": "role",
          "type": "bytes32"
        }
      ],
      "name": "getRoleMemberCount",
      "outputs": [
        {
          "internalType": "uint256",
          "name": "",
          "type": "uint256"
        }
      ],
      "stateMutability": "view",
      "type": "function",
      "constant": true
    },
    {
      "inputs": [
        {
          "internalType": "bytes32",
          "name": "role",
          "type": "bytes32"
        },
        {
          "internalType": "address",
          "name": "account",
          "type": "address"
        }
      ],
      "name": "grantRole",
      "outputs": [],
      "stateMutability": "nonpayable",
      "type": "function"
    },
    {
      "inputs": [
        {
          "internalType": "bytes32",
          "name": "role",
          "type": "bytes32"
        },
        {
          "internalType": "address",
          "name": "account",
          "type": "address"
        }
      ],
      "name": "hasRole",
      "outputs": [
        {
          "internalType": "bool",
          "name": "",
          "type": "bool"
        }
      ],
      "stateMutability": "view",
      "type": "function",
      "constant": true
    },
    {
      "inputs": [
        {
          "internalType": "address",
          "name": "spender",
          "type": "address"
        },
        {
          "internalType": "uint256",
          "name": "addedValue",
          "type": "uint256"
        }
      ],
      "name": "increaseAllowance",
      "outputs": [
        {
          "internalType": "bool",
          "name": "",
          "type": "bool"
        }
      ],
      "stateMutability": "nonpayable",
      "type": "function"
    },
    {
      "inputs": [],
      "name": "name",
      "outputs": [
        {
          "internalType": "string",
          "name": "",
          "type": "string"
        }
      ],
      "stateMutability": "view",
      "type": "function",
      "constant": true
    },
    {
      "inputs": [],
      "name": "paused",
      "outputs": [
        {
          "internalType": "bool",
          "name": "",
          "type": "bool"
        }
      ],
      "stateMutability": "view",
      "type": "function",
      "constant": true
    },
    {
      "inputs": [
        {
          "internalType": "bytes32",
          "name": "role",
          "type": "bytes32"
        },
        {
          "internalType": "address",
          "name": "account",
          "type": "address"
        }
      ],
      "name": "renounceRole",
      "outputs": [],
      "stateMutability": "nonpayable",
      "type": "function"
    },
    {
      "inputs": [
        {
          "internalType": "bytes32",
          "name": "role",
          "type": "bytes32"
        },
        {
          "internalType": "address",
          "name": "account",
          "type": "address"
        }
      ],
      "name": "revokeRole",
      "outputs": [],
      "stateMutability": "nonpayable",
      "type": "function"
    },
    {
      "inputs": [
        {
          "internalType": "bytes4",
          "name": "interfaceId",
          "type": "bytes4"
        }
      ],
      "name": "supportsInterface",
      "outputs": [
        {
          "internalType": "bool",
          "name": "",
          "type": "bool"
        }
      ],
      "stateMutability": "view",
      "type": "function",
      "constant": true
    },
    {
      "inputs": [],
      "name": "symbol",
      "outputs": [
        {
          "internalType": "string",
          "name": "",
          "type": "string"
        }
      ],
      "stateMutability": "view",
      "type": "function",
      "constant": true
    },
    {
      "inputs": [],
      "name": "totalSupply",
      "outputs": [
        {
          "internalType": "uint256",
          "name": "",
          "type": "uint256"
        }
      ],
      "stateMutability": "view",
      "type": "function",
      "constant": true
    },
    {
      "inputs": [
        {
          "internalType": "address",
          "name": "recipient",
          "type": "address"
        },
        {
          "internalType": "uint256",
          "name": "amount",
          "type": "uint256"
        }
      ],
      "name": "transfer",
      "outputs": [
        {
          "internalType": "bool",
          "name": "",
          "type": "bool"
        }
      ],
      "stateMutability": "nonpayable",
      "type": "function"
    },
    {
      "inputs": [
        {
          "internalType": "address",
          "name": "sender",
          "type": "address"
        },
        {
          "internalType": "address",
          "name": "recipient",
          "type": "address"
        },
        {
          "internalType": "uint256",
          "name": "amount",
          "type": "uint256"
        }
      ],
      "name": "transferFrom",
      "outputs": [
        {
          "internalType": "bool",
          "name": "",
          "type": "bool"
        }
      ],
      "stateMutability": "nonpayable",
      "type": "function"
    },
    {
      "inputs": [],
      "name": "decimals",
      "outputs": [
        {
          "internalType": "uint8",
          "name": "",
          "type": "uint8"
        }
      ],
      "stateMutability": "pure",
      "type": "function",
      "constant": true
    },
    {
      "inputs": [
        {
          "internalType": "address",
          "name": "to",
          "type": "address"
        },
        {
          "internalType": "uint256",
          "name": "amount",
          "type": "uint256"
        }
      ],
      "name": "mint",
      "outputs": [],
      "stateMutability": "nonpayable",
      "type": "function"
    },
    {
      "inputs": [
        {
          "internalType": "uint256",
          "name": "amount",
          "type": "uint256"
        }
      ],
      "name": "burn",
      "outputs": [],
      "stateMutability": "nonpayable",
      "type": "function"
    },
    {
      "inputs": [
        {
          "internalType": "address",
          "name": "account",
          "type": "address"
        },
        {
          "internalType": "uint256",
          "name": "amount",
          "type": "uint256"
        }
      ],
      "name": "burnFrom",
      "outputs": [],
      "stateMutability": "nonpayable",
      "type": "function"
    },
    {
      "inputs": [],
      "name": "pause",
      "outputs": [],
      "stateMutability": "nonpayable",
      "type": "function"
    },
    {
      "inputs": [],
      "name": "unpause",
      "outputs": [],
      "stateMutability": "nonpayable",
      "type": "function"
    },
    {
      "inputs": [
        {
          "internalType": "address",
          "name": "addressToken",
          "type": "address"
        }
      ],
      "name": "tokenBalanceOf",
      "outputs": [
        {
          "internalType": "string",
          "name": "",
          "type": "string"
        },
        {
          "internalType": "uint256",
          "name": "",
          "type": "uint256"
        }
      ],
      "stateMutability": "view",
      "type": "function",
      "constant": true
    },
    {
      "inputs": [
        {
          "internalType": "address",
          "name": "addressToken",
          "type": "address"
        }
      ],
      "name": "tokenWithdraw",
      "outputs": [],
      "stateMutability": "nonpayable",
      "type": "function"
    }
  ],
  "bytecode": "0x60806040523480156200001157600080fd5b506040518060400160405280600381526020017f42525a00000000000000000000000000000000000000000000000000000000008152506040518060400160405280600381526020017f42525a0000000000000000000000000000000000000000000000000000000000815250816005908051906020019062000096929190620003ce565b508060069080519060200190620000af929190620003ce565b5050506000600760006101000a81548160ff021916908315150217905550620000f16000801b620000e56200013860201b60201c565b6200014060201b60201c565b620001327fa49807205ce4d355092ef5a8a18f56e8913cf4a201fbe287825b095693c21775620001266200013860201b60201c565b6200014060201b60201c565b620004e3565b600033905090565b6200015782826200018860201b620012921760201c565b6200018381600160008581526020019081526020016000206200019e60201b620012a01790919060201c565b505050565b6200019a8282620001d660201b60201c565b5050565b6000620001ce836000018373ffffffffffffffffffffffffffffffffffffffff1660001b620002c760201b60201c565b905092915050565b620001e882826200034160201b60201c565b620002c357600160008084815260200190815260200160002060000160008373ffffffffffffffffffffffffffffffffffffffff1673ffffffffffffffffffffffffffffffffffffffff16815260200190815260200160002060006101000a81548160ff021916908315150217905550620002686200013860201b60201c565b73ffffffffffffffffffffffffffffffffffffffff168173ffffffffffffffffffffffffffffffffffffffff16837f2f8788117e7eff1d82e926ec794901d17c78024a50270940304540a733656f0d60405160405180910390a45b5050565b6000620002db8383620003ab60201b60201c565b620003365782600001829080600181540180825580915050600190039060005260206000200160009091909190915055826000018054905083600101600084815260200190815260200160002081905550600190506200033b565b600090505b92915050565b600080600084815260200190815260200160002060000160008373ffffffffffffffffffffffffffffffffffffffff1673ffffffffffffffffffffffffffffffffffffffff16815260200190815260200160002060009054906101000a900460ff16905092915050565b600080836001016000848152602001908152602001600020541415905092915050565b828054620003dc906200047e565b90600052602060002090601f0160209004810192826200040057600085556200044c565b82601f106200041b57805160ff19168380011785556200044c565b828001600101855582156200044c579182015b828111156200044b5782518255916020019190600101906200042e565b5b5090506200045b91906200045f565b5090565b5b808211156200047a57600081600090555060010162000460565b5090565b600060028204905060018216806200049757607f821691505b60208210811415620004ae57620004ad620004b4565b5b50919050565b7f4e487b7100000000000000000000000000000000000000000000000000000000600052602260045260246000fd5b613bbf80620004f36000396000f3fe608060405234801561001057600080fd5b50600436106101cf5760003560e01c806370a0823111610104578063a217fddf116100a2578063ca15c87311610071578063ca15c87314610542578063d547741f14610572578063dd62ed3e1461058e578063e42c08f2146105be576101cf565b8063a217fddf146104a8578063a457c2d7146104c6578063a9059cbb146104f6578063b555856214610526576101cf565b80638456cb59116100de5780638456cb59146104205780639010d07c1461042a57806391d148541461045a57806395d89b411461048a576101cf565b806370a08231146103b657806375b238fc146103e657806379cc679014610404576101cf565b8063313ce567116101715780633f4ba83a1161014b5780633f4ba83a1461035657806340c10f191461036057806342966c681461037c5780635c975abb14610398576101cf565b8063313ce567146102ec57806336568abe1461030a5780633950935114610326576101cf565b806318160ddd116101ad57806318160ddd1461025257806323b872dd14610270578063248a9ca3146102a05780632f2ff15d146102d0576101cf565b806301ffc9a7146101d457806306fdde0314610204578063095ea7b314610222575b600080fd5b6101ee60048036038101906101e99190612893565b6105ef565b6040516101fb9190612dca565b60405180910390f35b61020c610669565b6040516102199190612e00565b60405180910390f35b61023c6004803603810190610237919061278d565b6106fb565b6040516102499190612dca565b60405180910390f35b61025a610719565b6040516102679190613112565b60405180910390f35b61028a6004803603810190610285919061273e565b610723565b6040516102979190612dca565b60405180910390f35b6102ba60048036038101906102b591906127f2565b61081b565b6040516102c79190612de5565b60405180910390f35b6102ea60048036038101906102e5919061281b565b61083a565b005b6102f461086e565b604051610301919061312d565b60405180910390f35b610324600480360381019061031f919061281b565b610877565b005b610340600480360381019061033b919061278d565b6108ab565b60405161034d9190612dca565b60405180910390f35b61035e610957565b005b61037a6004803603810190610375919061278d565b6109d1565b005b610396600480360381019061039191906128fd565b610a4f565b005b6103a0610ad3565b6040516103ad9190612dca565b60405180910390f35b6103d060048036038101906103cb91906126d9565b610aea565b6040516103dd9190613112565b60405180910390f35b6103ee610b33565b6040516103fb9190612de5565b60405180910390f35b61041e6004803603810190610419919061278d565b610b57565b005b610428610c4b565b005b610444600480360381019061043f9190612857565b610cc5565b6040516104519190612d86565b60405180910390f35b610474600480360381019061046f919061281b565b610cf4565b6040516104819190612dca565b60405180910390f35b610492610d5e565b60405161049f9190612e00565b60405180910390f35b6104b0610df0565b6040516104bd9190612de5565b60405180910390f35b6104e060048036038101906104db919061278d565b610df7565b6040516104ed9190612dca565b60405180910390f35b610510600480360381019061050b919061278d565b610ee2565b60405161051d9190612dca565b60405180910390f35b610540600480360381019061053b91906126d9565b610f00565b005b61055c600480360381019061055791906127f2565b611095565b6040516105699190613112565b60405180910390f35b61058c6004803603810190610587919061281b565b6110b9565b005b6105a860048036038101906105a39190612702565b6110ed565b6040516105b59190613112565b60405180910390f35b6105d860048036038101906105d391906126d9565b611174565b6040516105e6929190612e22565b60405180910390f35b60007f5a05180f000000000000000000000000000000000000000000000000000000007bffffffffffffffffffffffffffffffffffffffffffffffffffffffff1916827bffffffffffffffffffffffffffffffffffffffffffffffffffffffff191614806106625750610661826112d0565b5b9050919050565b60606005805461067890613391565b80601f01602080910402602001604051908101604052809291908181526020018280546106a490613391565b80156106f15780601f106106c6576101008083540402835291602001916106f1565b820191906000526020600020905b8154815290600101906020018083116106d457829003601f168201915b5050505050905090565b600061070f61070861134a565b8484611352565b6001905092915050565b6000600454905090565b600061073084848461151d565b6000600360008673ffffffffffffffffffffffffffffffffffffffff1673ffffffffffffffffffffffffffffffffffffffff168152602001908152602001600020600061077b61134a565b73ffffffffffffffffffffffffffffffffffffffff1673ffffffffffffffffffffffffffffffffffffffff168152602001908152602001600020549050828110156107fb576040517f08c379a00000000000000000000000000000000000000000000000000000000081526004016107f290612f92565b60405180910390fd5b61080f8561080761134a565b858403611352565b60019150509392505050565b6000806000838152602001908152602001600020600101549050919050565b61084482826117a1565b61086981600160008581526020019081526020016000206112a090919063ffffffff16565b505050565b60006004905090565b61088182826117ca565b6108a6816001600085815260200190815260200160002061184d90919063ffffffff16565b505050565b600061094d6108b861134a565b8484600360006108c661134a565b73ffffffffffffffffffffffffffffffffffffffff1673ffffffffffffffffffffffffffffffffffffffff16815260200190815260200160002060008873ffffffffffffffffffffffffffffffffffffffff1673ffffffffffffffffffffffffffffffffffffffff1681526020019081526020016000205461094891906131c5565b611352565b6001905092915050565b6109887fa49807205ce4d355092ef5a8a18f56e8913cf4a201fbe287825b095693c2177561098361134a565b610cf4565b6109c7576040517f08c379a00000000000000000000000000000000000000000000000000000000081526004016109be90612f52565b60405180910390fd5b6109cf61187d565b565b610a027fa49807205ce4d355092ef5a8a18f56e8913cf4a201fbe287825b095693c217756109fd61134a565b610cf4565b610a41576040517f08c379a0000000000000000000000000000000000000000000000000000000008152600401610a3890613052565b60405180910390fd5b610a4b828261191f565b5050565b610a807fa49807205ce4d355092ef5a8a18f56e8913cf4a201fbe287825b095693c21775610a7b61134a565b610cf4565b610abf576040517f08c379a0000000000000000000000000000000000000000000000000000000008152600401610ab690612fb2565b60405180910390fd5b610ad0610aca61134a565b82611a80565b50565b6000600760009054906101000a900460ff16905090565b6000600260008373ffffffffffffffffffffffffffffffffffffffff1673ffffffffffffffffffffffffffffffffffffffff168152602001908152602001600020549050919050565b7fa49807205ce4d355092ef5a8a18f56e8913cf4a201fbe287825b095693c2177581565b610b887fa49807205ce4d355092ef5a8a18f56e8913cf4a201fbe287825b095693c21775610b8361134a565b610cf4565b610bc7576040517f08c379a0000000000000000000000000000000000000000000000000000000008152600401610bbe90612fd2565b60405180910390fd5b6000610bda83610bd561134a565b6110ed565b905081811015610c1f576040517f08c379a0000000000000000000000000000000000000000000000000000000008152600401610c1690612ff2565b60405180910390fd5b610c3c83610c2b61134a565b8484610c379190613275565b611352565b610c468383611a80565b505050565b610c7c7fa49807205ce4d355092ef5a8a18f56e8913cf4a201fbe287825b095693c21775610c7761134a565b610cf4565b610cbb576040517f08c379a0000000000000000000000000000000000000000000000000000000008152600401610cb290612f12565b60405180910390fd5b610cc3611c59565b565b6000610cec8260016000868152602001908152602001600020611cfc90919063ffffffff16565b905092915050565b600080600084815260200190815260200160002060000160008373ffffffffffffffffffffffffffffffffffffffff1673ffffffffffffffffffffffffffffffffffffffff16815260200190815260200160002060009054906101000a900460ff16905092915050565b606060068054610d6d90613391565b80601f0160208091040260200160405190810160405280929190818152602001828054610d9990613391565b8015610de65780601f10610dbb57610100808354040283529160200191610de6565b820191906000526020600020905b815481529060010190602001808311610dc957829003601f168201915b5050505050905090565b6000801b81565b60008060036000610e0661134a565b73ffffffffffffffffffffffffffffffffffffffff1673ffffffffffffffffffffffffffffffffffffffff16815260200190815260200160002060008573ffffffffffffffffffffffffffffffffffffffff1673ffffffffffffffffffffffffffffffffffffffff16815260200190815260200160002054905082811015610ec3576040517f08c379a0000000000000000000000000000000000000000000000000000000008152600401610eba90613092565b60405180910390fd5b610ed7610ece61134a565b85858403611352565b600191505092915050565b6000610ef6610eef61134a565b848461151d565b6001905092915050565b610f317fa49807205ce4d355092ef5a8a18f56e8913cf4a201fbe287825b095693c21775610f2c61134a565b610cf4565b610f70576040517f08c379a0000000000000000000000000000000000000000000000000000000008152600401610f6790612f72565b60405180910390fd5b600081905060008173ffffffffffffffffffffffffffffffffffffffff166370a08231306040518263ffffffff1660e01b8152600401610fb09190612d86565b60206040518083038186803b158015610fc857600080fd5b505afa158015610fdc573d6000803e3d6000fd5b505050506040513d601f19601f820116820180604052508101906110009190612926565b90508173ffffffffffffffffffffffffffffffffffffffff1663a9059cbb33836040518363ffffffff1660e01b815260040161103d929190612da1565b602060405180830381600087803b15801561105757600080fd5b505af115801561106b573d6000803e3d6000fd5b505050506040513d601f19601f8201168201806040525081019061108f91906127c9565b50505050565b60006110b260016000848152602001908152602001600020611d16565b9050919050565b6110c38282611d2b565b6110e8816001600085815260200190815260200160002061184d90919063ffffffff16565b505050565b6000600360008473ffffffffffffffffffffffffffffffffffffffff1673ffffffffffffffffffffffffffffffffffffffff16815260200190815260200160002060008373ffffffffffffffffffffffffffffffffffffffff1673ffffffffffffffffffffffffffffffffffffffff16815260200190815260200160002054905092915050565b60606000808390508073ffffffffffffffffffffffffffffffffffffffff166395d89b416040518163ffffffff1660e01b815260040160006040518083038186803b1580156111c257600080fd5b505afa1580156111d6573d6000803e3d6000fd5b505050506040513d6000823e3d601f19601f820116820180604052508101906111ff91906128bc565b8173ffffffffffffffffffffffffffffffffffffffff166370a08231306040518263ffffffff1660e01b81526004016112389190612d86565b60206040518083038186803b15801561125057600080fd5b505afa158015611264573d6000803e3d6000fd5b505050506040513d601f19601f820116820180604052508101906112889190612926565b9250925050915091565b61129c8282611d54565b5050565b60006112c8836000018373ffffffffffffffffffffffffffffffffffffffff1660001b611e34565b905092915050565b60007f7965db0b000000000000000000000000000000000000000000000000000000007bffffffffffffffffffffffffffffffffffffffffffffffffffffffff1916827bffffffffffffffffffffffffffffffffffffffffffffffffffffffff19161480611343575061134282611ea4565b5b9050919050565b600033905090565b600073ffffffffffffffffffffffffffffffffffffffff168373ffffffffffffffffffffffffffffffffffffffff1614156113c2576040517f08c379a00000000000000000000000000000000000000000000000000000000081526004016113b990613072565b60405180910390fd5b600073ffffffffffffffffffffffffffffffffffffffff168273ffffffffffffffffffffffffffffffffffffffff161415611432576040517f08c379a000000000000000000000000000000000000000000000000000000000815260040161142990612ed2565b60405180910390fd5b80600360008573ffffffffffffffffffffffffffffffffffffffff1673ffffffffffffffffffffffffffffffffffffffff16815260200190815260200160002060008473ffffffffffffffffffffffffffffffffffffffff1673ffffffffffffffffffffffffffffffffffffffff168152602001908152602001600020819055508173ffffffffffffffffffffffffffffffffffffffff168373ffffffffffffffffffffffffffffffffffffffff167f8c5be1e5ebec7d5bd14f71427d1e84f3dd0314c0f7b2291e5b200ac8c7c3b925836040516115109190613112565b60405180910390a3505050565b600073ffffffffffffffffffffffffffffffffffffffff168373ffffffffffffffffffffffffffffffffffffffff16141561158d576040517f08c379a000000000000000000000000000000000000000000000000000000000815260040161158490613032565b60405180910390fd5b600073ffffffffffffffffffffffffffffffffffffffff168273ffffffffffffffffffffffffffffffffffffffff1614156115fd576040517f08c379a00000000000000000000000000000000000000000000000000000000081526004016115f490612e72565b60405180910390fd5b611608838383611f0e565b6000600260008573ffffffffffffffffffffffffffffffffffffffff1673ffffffffffffffffffffffffffffffffffffffff1681526020019081526020016000205490508181101561168f576040517f08c379a000000000000000000000000000000000000000000000000000000000815260040161168690612ef2565b60405180910390fd5b818103600260008673ffffffffffffffffffffffffffffffffffffffff1673ffffffffffffffffffffffffffffffffffffffff1681526020019081526020016000208190555081600260008573ffffffffffffffffffffffffffffffffffffffff1673ffffffffffffffffffffffffffffffffffffffff168152602001908152602001600020600082825461172491906131c5565b925050819055508273ffffffffffffffffffffffffffffffffffffffff168473ffffffffffffffffffffffffffffffffffffffff167fddf252ad1be2c89b69c2b068fc378daa952ba7f163c4a11628f55a4df523b3ef846040516117889190613112565b60405180910390a361179b848484611f66565b50505050565b6117aa8261081b565b6117bb816117b661134a565b611f6b565b6117c58383611d54565b505050565b6117d261134a565b73ffffffffffffffffffffffffffffffffffffffff168173ffffffffffffffffffffffffffffffffffffffff161461183f576040517f08c379a0000000000000000000000000000000000000000000000000000000008152600401611836906130b2565b60405180910390fd5b6118498282612008565b5050565b6000611875836000018373ffffffffffffffffffffffffffffffffffffffff1660001b6120e9565b905092915050565b611885610ad3565b6118c4576040517f08c379a00000000000000000000000000000000000000000000000000000000081526004016118bb90612e92565b60405180910390fd5b6000600760006101000a81548160ff0219169083151502179055507f5db9ee0a495bf2e6ff9c91a7834c1ba4fdd244a5e8aa4e537bd38aeae4b073aa61190861134a565b6040516119159190612d86565b60405180910390a1565b600073ffffffffffffffffffffffffffffffffffffffff168273ffffffffffffffffffffffffffffffffffffffff16141561198f576040517f08c379a0000000000000000000000000000000000000000000000000000000008152600401611986906130d2565b60405180910390fd5b61199b60008383611f0e565b80600460008282546119ad91906131c5565b9250508190555080600260008473ffffffffffffffffffffffffffffffffffffffff1673ffffffffffffffffffffffffffffffffffffffff1681526020019081526020016000206000828254611a0391906131c5565b925050819055508173ffffffffffffffffffffffffffffffffffffffff16600073ffffffffffffffffffffffffffffffffffffffff167fddf252ad1be2c89b69c2b068fc378daa952ba7f163c4a11628f55a4df523b3ef83604051611a689190613112565b60405180910390a3611a7c60008383611f66565b5050565b600073ffffffffffffffffffffffffffffffffffffffff168273ffffffffffffffffffffffffffffffffffffffff161415611af0576040517f08c379a0000000000000000000000000000000000000000000000000000000008152600401611ae790613012565b60405180910390fd5b611afc82600083611f0e565b6000600260008473ffffffffffffffffffffffffffffffffffffffff1673ffffffffffffffffffffffffffffffffffffffff16815260200190815260200160002054905081811015611b83576040517f08c379a0000000000000000000000000000000000000000000000000000000008152600401611b7a90612eb2565b60405180910390fd5b818103600260008573ffffffffffffffffffffffffffffffffffffffff1673ffffffffffffffffffffffffffffffffffffffff168152602001908152602001600020819055508160046000828254611bdb9190613275565b92505081905550600073ffffffffffffffffffffffffffffffffffffffff168373ffffffffffffffffffffffffffffffffffffffff167fddf252ad1be2c89b69c2b068fc378daa952ba7f163c4a11628f55a4df523b3ef84604051611c409190613112565b60405180910390a3611c5483600084611f66565b505050565b611c61610ad3565b15611ca1576040517f08c379a0000000000000000000000000000000000000000000000000000000008152600401611c9890612f32565b60405180910390fd5b6001600760006101000a81548160ff0219169083151502179055507f62e78cea01bee320cd4e420270b5ea74000d11b0c9f74754ebdbfc544b05a258611ce561134a565b604051611cf29190612d86565b60405180910390a1565b6000611d0b836000018361226f565b60001c905092915050565b6000611d24826000016122c0565b9050919050565b611d348261081b565b611d4581611d4061134a565b611f6b565b611d4f8383612008565b505050565b611d5e8282610cf4565b611e3057600160008084815260200190815260200160002060000160008373ffffffffffffffffffffffffffffffffffffffff1673ffffffffffffffffffffffffffffffffffffffff16815260200190815260200160002060006101000a81548160ff021916908315150217905550611dd561134a565b73ffffffffffffffffffffffffffffffffffffffff168173ffffffffffffffffffffffffffffffffffffffff16837f2f8788117e7eff1d82e926ec794901d17c78024a50270940304540a733656f0d60405160405180910390a45b5050565b6000611e4083836122d1565b611e99578260000182908060018154018082558091505060019003906000526020600020016000909190919091505582600001805490508360010160008481526020019081526020016000208190555060019050611e9e565b600090505b92915050565b60007f01ffc9a7000000000000000000000000000000000000000000000000000000007bffffffffffffffffffffffffffffffffffffffffffffffffffffffff1916827bffffffffffffffffffffffffffffffffffffffffffffffffffffffff1916149050919050565b611f198383836122f4565b611f21610ad3565b15611f61576040517f08c379a0000000000000000000000000000000000000000000000000000000008152600401611f58906130f2565b60405180910390fd5b505050565b505050565b611f758282610cf4565b61200457611f9a8173ffffffffffffffffffffffffffffffffffffffff1660146122f9565b611fa88360001c60206122f9565b604051602001611fb9929190612d4c565b6040516020818303038152906040526040517f08c379a0000000000000000000000000000000000000000000000000000000008152600401611ffb9190612e00565b60405180910390fd5b5050565b6120128282610cf4565b156120e557600080600084815260200190815260200160002060000160008373ffffffffffffffffffffffffffffffffffffffff1673ffffffffffffffffffffffffffffffffffffffff16815260200190815260200160002060006101000a81548160ff02191690831515021790555061208a61134a565b73ffffffffffffffffffffffffffffffffffffffff168173ffffffffffffffffffffffffffffffffffffffff16837ff6391f5c32d9c69d2a47ea670b442974b53935d1edc7fd64eb21e047a839171b60405160405180910390a45b5050565b6000808360010160008481526020019081526020016000205490506000811461226357600060018261211b9190613275565b90506000600186600001805490506121339190613275565b90508181146121ee57600086600001828154811061217a577f4e487b7100000000000000000000000000000000000000000000000000000000600052603260045260246000fd5b90600052602060002001549050808760000184815481106121c4577f4e487b7100000000000000000000000000000000000000000000000000000000600052603260045260246000fd5b90600052602060002001819055508387600101600083815260200190815260200160002081905550505b85600001805480612228577f4e487b7100000000000000000000000000000000000000000000000000000000600052603160045260246000fd5b600190038181906000526020600020016000905590558560010160008681526020019081526020016000206000905560019350505050612269565b60009150505b92915050565b60008260000182815481106122ad577f4e487b7100000000000000000000000000000000000000000000000000000000600052603260045260246000fd5b9060005260206000200154905092915050565b600081600001805490509050919050565b600080836001016000848152602001908152602001600020541415905092915050565b505050565b60606000600283600261230c919061321b565b61231691906131c5565b67ffffffffffffffff811115612355577f4e487b7100000000000000000000000000000000000000000000000000000000600052604160045260246000fd5b6040519080825280601f01601f1916602001820160405280156123875781602001600182028036833780820191505090505b5090507f3000000000000000000000000000000000000000000000000000000000000000816000815181106123e5577f4e487b7100000000000000000000000000000000000000000000000000000000600052603260045260246000fd5b60200101907effffffffffffffffffffffffffffffffffffffffffffffffffffffffffffff1916908160001a9053507f78000000000000000000000000000000000000000000000000000000000000008160018151811061246f577f4e487b7100000000000000000000000000000000000000000000000000000000600052603260045260246000fd5b60200101907effffffffffffffffffffffffffffffffffffffffffffffffffffffffffffff1916908160001a905350600060018460026124af919061321b565b6124b991906131c5565b90505b60018111156125a5577f3031323334353637383961626364656600000000000000000000000000000000600f861660108110612521577f4e487b7100000000000000000000000000000000000000000000000000000000600052603260045260246000fd5b1a60f81b82828151811061255e577f4e487b7100000000000000000000000000000000000000000000000000000000600052603260045260246000fd5b60200101907effffffffffffffffffffffffffffffffffffffffffffffffffffffffffffff1916908160001a905350600485901c94508061259e90613367565b90506124bc565b50600084146125e9576040517f08c379a00000000000000000000000000000000000000000000000000000000081526004016125e090612e52565b60405180910390fd5b8091505092915050565b60006126066126018461316d565b613148565b90508281526020810184848401111561261e57600080fd5b612629848285613334565b509392505050565b60008135905061264081613b16565b92915050565b60008151905061265581613b2d565b92915050565b60008135905061266a81613b44565b92915050565b60008135905061267f81613b5b565b92915050565b600082601f83011261269657600080fd5b81516126a68482602086016125f3565b91505092915050565b6000813590506126be81613b72565b92915050565b6000815190506126d381613b72565b92915050565b6000602082840312156126eb57600080fd5b60006126f984828501612631565b91505092915050565b6000806040838503121561271557600080fd5b600061272385828601612631565b925050602061273485828601612631565b9150509250929050565b60008060006060848603121561275357600080fd5b600061276186828701612631565b935050602061277286828701612631565b9250506040612783868287016126af565b9150509250925092565b600080604083850312156127a057600080fd5b60006127ae85828601612631565b92505060206127bf858286016126af565b9150509250929050565b6000602082840312156127db57600080fd5b60006127e984828501612646565b91505092915050565b60006020828403121561280457600080fd5b60006128128482850161265b565b91505092915050565b6000806040838503121561282e57600080fd5b600061283c8582860161265b565b925050602061284d85828601612631565b9150509250929050565b6000806040838503121561286a57600080fd5b60006128788582860161265b565b9250506020612889858286016126af565b9150509250929050565b6000602082840312156128a557600080fd5b60006128b384828501612670565b91505092915050565b6000602082840312156128ce57600080fd5b600082015167ffffffffffffffff8111156128e857600080fd5b6128f484828501612685565b91505092915050565b60006020828403121561290f57600080fd5b600061291d848285016126af565b91505092915050565b60006020828403121561293857600080fd5b6000612946848285016126c4565b91505092915050565b612958816132a9565b82525050565b612967816132bb565b82525050565b612976816132c7565b82525050565b60006129878261319e565b61299181856131a9565b93506129a1818560208601613334565b6129aa81613481565b840191505092915050565b60006129c08261319e565b6129ca81856131ba565b93506129da818560208601613334565b80840191505092915050565b60006129f36020836131a9565b91506129fe82613492565b602082019050919050565b6000612a166023836131a9565b9150612a21826134bb565b604082019050919050565b6000612a396014836131a9565b9150612a448261350a565b602082019050919050565b6000612a5c6022836131a9565b9150612a6782613533565b604082019050919050565b6000612a7f6022836131a9565b9150612a8a82613582565b604082019050919050565b6000612aa26026836131a9565b9150612aad826135d1565b604082019050919050565b6000612ac56024836131a9565b9150612ad082613620565b604082019050919050565b6000612ae86010836131a9565b9150612af38261366f565b602082019050919050565b6000612b0b6026836131a9565b9150612b1682613698565b604082019050919050565b6000612b2e602c836131a9565b9150612b39826136e7565b604082019050919050565b6000612b516028836131a9565b9150612b5c82613736565b604082019050919050565b6000612b746023836131a9565b9150612b7f82613785565b604082019050919050565b6000612b976027836131a9565b9150612ba2826137d4565b604082019050919050565b6000612bba6024836131a9565b9150612bc582613823565b604082019050919050565b6000612bdd6021836131a9565b9150612be882613872565b604082019050919050565b6000612c006025836131a9565b9150612c0b826138c1565b604082019050919050565b6000612c236023836131a9565b9150612c2e82613910565b604082019050919050565b6000612c466024836131a9565b9150612c518261395f565b604082019050919050565b6000612c696017836131ba565b9150612c74826139ae565b601782019050919050565b6000612c8c6025836131a9565b9150612c97826139d7565b604082019050919050565b6000612caf6011836131ba565b9150612cba82613a26565b601182019050919050565b6000612cd2602f836131a9565b9150612cdd82613a4f565b604082019050919050565b6000612cf5601f836131a9565b9150612d0082613a9e565b602082019050919050565b6000612d18602a836131a9565b9150612d2382613ac7565b604082019050919050565b612d378161331d565b82525050565b612d4681613327565b82525050565b6000612d5782612c5c565b9150612d6382856129b5565b9150612d6e82612ca2565b9150612d7a82846129b5565b91508190509392505050565b6000602082019050612d9b600083018461294f565b92915050565b6000604082019050612db6600083018561294f565b612dc36020830184612d2e565b9392505050565b6000602082019050612ddf600083018461295e565b92915050565b6000602082019050612dfa600083018461296d565b92915050565b60006020820190508181036000830152612e1a818461297c565b905092915050565b60006040820190508181036000830152612e3c818561297c565b9050612e4b6020830184612d2e565b9392505050565b60006020820190508181036000830152612e6b816129e6565b9050919050565b60006020820190508181036000830152612e8b81612a09565b9050919050565b60006020820190508181036000830152612eab81612a2c565b9050919050565b60006020820190508181036000830152612ecb81612a4f565b9050919050565b60006020820190508181036000830152612eeb81612a72565b9050919050565b60006020820190508181036000830152612f0b81612a95565b9050919050565b60006020820190508181036000830152612f2b81612ab8565b9050919050565b60006020820190508181036000830152612f4b81612adb565b9050919050565b60006020820190508181036000830152612f6b81612afe565b9050919050565b60006020820190508181036000830152612f8b81612b21565b9050919050565b60006020820190508181036000830152612fab81612b44565b9050919050565b60006020820190508181036000830152612fcb81612b67565b9050919050565b60006020820190508181036000830152612feb81612b8a565b9050919050565b6000602082019050818103600083015261300b81612bad565b9050919050565b6000602082019050818103600083015261302b81612bd0565b9050919050565b6000602082019050818103600083015261304b81612bf3565b9050919050565b6000602082019050818103600083015261306b81612c16565b9050919050565b6000602082019050818103600083015261308b81612c39565b9050919050565b600060208201905081810360008301526130ab81612c7f565b9050919050565b600060208201905081810360008301526130cb81612cc5565b9050919050565b600060208201905081810360008301526130eb81612ce8565b9050919050565b6000602082019050818103600083015261310b81612d0b565b9050919050565b60006020820190506131276000830184612d2e565b92915050565b60006020820190506131426000830184612d3d565b92915050565b6000613152613163565b905061315e82826133c3565b919050565b6000604051905090565b600067ffffffffffffffff82111561318857613187613452565b5b61319182613481565b9050602081019050919050565b600081519050919050565b600082825260208201905092915050565b600081905092915050565b60006131d08261331d565b91506131db8361331d565b9250827fffffffffffffffffffffffffffffffffffffffffffffffffffffffffffffffff038211156132105761320f6133f4565b5b828201905092915050565b60006132268261331d565b91506132318361331d565b9250817fffffffffffffffffffffffffffffffffffffffffffffffffffffffffffffffff048311821515161561326a576132696133f4565b5b828202905092915050565b60006132808261331d565b915061328b8361331d565b92508282101561329e5761329d6133f4565b5b828203905092915050565b60006132b4826132fd565b9050919050565b60008115159050919050565b6000819050919050565b60007fffffffff0000000000000000000000000000000000000000000000000000000082169050919050565b600073ffffffffffffffffffffffffffffffffffffffff82169050919050565b6000819050919050565b600060ff82169050919050565b60005b83811015613352578082015181840152602081019050613337565b83811115613361576000848401525b50505050565b60006133728261331d565b91506000821415613386576133856133f4565b5b600182039050919050565b600060028204905060018216806133a957607f821691505b602082108114156133bd576133bc613423565b5b50919050565b6133cc82613481565b810181811067ffffffffffffffff821117156133eb576133ea613452565b5b80604052505050565b7f4e487b7100000000000000000000000000000000000000000000000000000000600052601160045260246000fd5b7f4e487b7100000000000000000000000000000000000000000000000000000000600052602260045260246000fd5b7f4e487b7100000000000000000000000000000000000000000000000000000000600052604160045260246000fd5b6000601f19601f8301169050919050565b7f537472696e67733a20686578206c656e67746820696e73756666696369656e74600082015250565b7f45524332303a207472616e7366657220746f20746865207a65726f206164647260008201527f6573730000000000000000000000000000000000000000000000000000000000602082015250565b7f5061757361626c653a206e6f7420706175736564000000000000000000000000600082015250565b7f45524332303a206275726e20616d6f756e7420657863656564732062616c616e60008201527f6365000000000000000000000000000000000000000000000000000000000000602082015250565b7f45524332303a20617070726f766520746f20746865207a65726f20616464726560008201527f7373000000000000000000000000000000000000000000000000000000000000602082015250565b7f45524332303a207472616e7366657220616d6f756e742065786365656473206260008201527f616c616e63650000000000000000000000000000000000000000000000000000602082015250565b7f546f6b656e3a206d75737420686176652061646d696e20726f6c6520746f207060008201527f6175736500000000000000000000000000000000000000000000000000000000602082015250565b7f5061757361626c653a2070617573656400000000000000000000000000000000600082015250565b7f546f6b656e3a206d75737420686176652061646d696e20726f6c6520746f207560008201527f6e70617573650000000000000000000000000000000000000000000000000000602082015250565b7f546f6b656e3a206d75737420686176652061646d696e20726f6c6520746f207460008201527f6f6b656e57697468647261770000000000000000000000000000000000000000602082015250565b7f45524332303a207472616e7366657220616d6f756e742065786365656473206160008201527f6c6c6f77616e6365000000000000000000000000000000000000000000000000602082015250565b7f546f6b656e3a206d75737420686176652061646d696e20726f6c6520746f206260008201527f75726e0000000000000000000000000000000000000000000000000000000000602082015250565b7f546f6b656e3a206d75737420686176652061646d696e20726f6c6520746f206260008201527f75726e46726f6d00000000000000000000000000000000000000000000000000602082015250565b7f45524332303a206275726e20616d6f756e74206578636565647320616c6c6f7760008201527f616e636500000000000000000000000000000000000000000000000000000000602082015250565b7f45524332303a206275726e2066726f6d20746865207a65726f2061646472657360008201527f7300000000000000000000000000000000000000000000000000000000000000602082015250565b7f45524332303a207472616e736665722066726f6d20746865207a65726f20616460008201527f6472657373000000000000000000000000000000000000000000000000000000602082015250565b7f546f6b656e3a206d75737420686176652061646d696e20726f6c6520746f206d60008201527f696e740000000000000000000000000000000000000000000000000000000000602082015250565b7f45524332303a20617070726f76652066726f6d20746865207a65726f2061646460008201527f7265737300000000000000000000000000000000000000000000000000000000602082015250565b7f416363657373436f6e74726f6c3a206163636f756e7420000000000000000000600082015250565b7f45524332303a2064656372656173656420616c6c6f77616e63652062656c6f7760008201527f207a65726f000000000000000000000000000000000000000000000000000000602082015250565b7f206973206d697373696e6720726f6c6520000000000000000000000000000000600082015250565b7f416363657373436f6e74726f6c3a2063616e206f6e6c792072656e6f756e636560008201527f20726f6c657320666f722073656c660000000000000000000000000000000000602082015250565b7f45524332303a206d696e7420746f20746865207a65726f206164647265737300600082015250565b7f45524332305061757361626c653a20746f6b656e207472616e7366657220776860008201527f696c652070617573656400000000000000000000000000000000000000000000602082015250565b613b1f816132a9565b8114613b2a57600080fd5b50565b613b36816132bb565b8114613b4157600080fd5b50565b613b4d816132c7565b8114613b5857600080fd5b50565b613b64816132d1565b8114613b6f57600080fd5b50565b613b7b8161331d565b8114613b8657600080fd5b5056fea26469706673582212203a05577ab26a94a189fa32993f36ecbe6238e973a5b780b60c7d4d13acf74b8b64736f6c63430008040033",
  "immutableReferences": {},
  "source": "// SPDX-License-Identifier: MIT\r\npragma solidity 0.8.4;\r\n\r\nimport '@openzeppelin/contracts/access/AccessControlEnumerable.sol';\r\nimport '@openzeppelin/contracts/token/ERC20/extensions/ERC20Pausable.sol';\r\n\r\ncontract BRZ is Context, AccessControlEnumerable, ERC20Pausable  {\r\n\r\n    bytes32 public constant ADMIN_ROLE = keccak256(\"ADMIN_ROLE\");\r\n\r\n    constructor() ERC20(\"BRZ\", \"BRZ\") {\r\n        _setupRole(DEFAULT_ADMIN_ROLE, _msgSender());\r\n        _setupRole(ADMIN_ROLE, _msgSender());\r\n    }\r\n\r\n    function decimals() public pure override returns (uint8) {\r\n        return 4;\r\n    }\r\n\r\n    function mint(address to, uint256 amount) public {\r\n        require(hasRole(ADMIN_ROLE, _msgSender()), \"Token: must have admin role to mint\");\r\n        _mint(to, amount);\r\n    }    \r\n\r\n    function burn(uint256 amount) public {\r\n        require(hasRole(ADMIN_ROLE, _msgSender()), \"Token: must have admin role to burn\");\r\n        _burn(_msgSender(), amount);\r\n    }\r\n\r\n    function burnFrom(address account, uint256 amount) public {\r\n        require(hasRole(ADMIN_ROLE, _msgSender()), \"Token: must have admin role to burnFrom\");\r\n        uint256 currentAllowance = allowance(account, _msgSender());\r\n        require(currentAllowance >= amount, \"ERC20: burn amount exceeds allowance\");\r\n        _approve(account, _msgSender(), currentAllowance - amount);\r\n        _burn(account, amount);\r\n    }    \r\n\r\n    function pause() public {\r\n        require(hasRole(ADMIN_ROLE, _msgSender()), \"Token: must have admin role to pause\");\r\n        _pause();\r\n    }\r\n\r\n    function unpause() public {\r\n        require(hasRole(ADMIN_ROLE, _msgSender()), \"Token: must have admin role to unpause\");\r\n        _unpause();\r\n    }\r\n    \r\n    /**\r\n    * @dev Manage tokens sent to this contract\r\n    */\r\n    function tokenBalanceOf(address addressToken) public view returns (string memory, uint256) {        \r\n        IERC20Metadata token = IERC20Metadata(addressToken);\r\n        return (token.symbol(), token.balanceOf(address(this)));\r\n    }\r\n    \r\n    function tokenWithdraw(address addressToken) public {\r\n        require(hasRole(ADMIN_ROLE, _msgSender()), \"Token: must have admin role to tokenWithdraw\");\r\n        IERC20 token = IERC20(addressToken);\r\n        uint256 balance = token.balanceOf(address(this));\r\n        token.transfer(msg.sender, balance);\r\n    }\r\n    \r\n}",
  "sourcePath": "C:/BLOCKCHAIN/TRANSFERO/token-minter-approver/contracts/Token.sol",
  "compiler": {
    "name": "solc",
    "version": "0.8.4+commit.c7e474f2.Emscripten.clang"
  },
  "schemaVersion": "3.4.1",
  "updatedAt": "2021-07-06T02:49:35.746Z",
  "networkType": "ethereum",
  "devdoc": {
    "kind": "dev",
    "methods": {
      "allowance(address,address)": {
        "details": "See {IERC20-allowance}."
      },
      "approve(address,uint256)": {
        "details": "See {IERC20-approve}. Requirements: - `spender` cannot be the zero address."
      },
      "balanceOf(address)": {
        "details": "See {IERC20-balanceOf}."
      },
      "decimals()": {
        "details": "Returns the number of decimals used to get its user representation. For example, if `decimals` equals `2`, a balance of `505` tokens should be displayed to a user as `5,05` (`505 / 10 ** 2`). Tokens usually opt for a value of 18, imitating the relationship between Ether and Wei. This is the value {ERC20} uses, unless this function is overridden; NOTE: This information is only used for _display_ purposes: it in no way affects any of the arithmetic of the contract, including {IERC20-balanceOf} and {IERC20-transfer}."
      },
      "decreaseAllowance(address,uint256)": {
        "details": "Atomically decreases the allowance granted to `spender` by the caller. This is an alternative to {approve} that can be used as a mitigation for problems described in {IERC20-approve}. Emits an {Approval} event indicating the updated allowance. Requirements: - `spender` cannot be the zero address. - `spender` must have allowance for the caller of at least `subtractedValue`."
      },
      "getRoleAdmin(bytes32)": {
        "details": "Returns the admin role that controls `role`. See {grantRole} and {revokeRole}. To change a role's admin, use {_setRoleAdmin}."
      },
      "getRoleMember(bytes32,uint256)": {
        "details": "Returns one of the accounts that have `role`. `index` must be a value between 0 and {getRoleMemberCount}, non-inclusive. Role bearers are not sorted in any particular way, and their ordering may change at any point. WARNING: When using {getRoleMember} and {getRoleMemberCount}, make sure you perform all queries on the same block. See the following https://forum.openzeppelin.com/t/iterating-over-elements-on-enumerableset-in-openzeppelin-contracts/2296[forum post] for more information."
      },
      "getRoleMemberCount(bytes32)": {
        "details": "Returns the number of accounts that have `role`. Can be used together with {getRoleMember} to enumerate all bearers of a role."
      },
      "grantRole(bytes32,address)": {
        "details": "Overload {grantRole} to track enumerable memberships"
      },
      "hasRole(bytes32,address)": {
        "details": "Returns `true` if `account` has been granted `role`."
      },
      "increaseAllowance(address,uint256)": {
        "details": "Atomically increases the allowance granted to `spender` by the caller. This is an alternative to {approve} that can be used as a mitigation for problems described in {IERC20-approve}. Emits an {Approval} event indicating the updated allowance. Requirements: - `spender` cannot be the zero address."
      },
      "name()": {
        "details": "Returns the name of the token."
      },
      "paused()": {
        "details": "Returns true if the contract is paused, and false otherwise."
      },
      "renounceRole(bytes32,address)": {
        "details": "Overload {renounceRole} to track enumerable memberships"
      },
      "revokeRole(bytes32,address)": {
        "details": "Overload {revokeRole} to track enumerable memberships"
      },
      "supportsInterface(bytes4)": {
        "details": "See {IERC165-supportsInterface}."
      },
      "symbol()": {
        "details": "Returns the symbol of the token, usually a shorter version of the name."
      },
      "tokenBalanceOf(address)": {
        "details": "Manage tokens sent to this contract"
      },
      "totalSupply()": {
        "details": "See {IERC20-totalSupply}."
      },
      "transfer(address,uint256)": {
        "details": "See {IERC20-transfer}. Requirements: - `recipient` cannot be the zero address. - the caller must have a balance of at least `amount`."
      },
      "transferFrom(address,address,uint256)": {
        "details": "See {IERC20-transferFrom}. Emits an {Approval} event indicating the updated allowance. This is not required by the EIP. See the note at the beginning of {ERC20}. Requirements: - `sender` and `recipient` cannot be the zero address. - `sender` must have a balance of at least `amount`. - the caller must have allowance for ``sender``'s tokens of at least `amount`."
      }
    },
    "version": 1
  },
  "userdoc": {
    "kind": "user",
    "methods": {},
    "version": 1
  }
}