{
  "contractName": "TokenMinterApprover",
  "abi": [
    {
      "inputs": [
        {
          "internalType": "address",
          "name": "tokenAddress",
          "type": "address"
        }
      ],
      "stateMutability": "nonpayable",
      "type": "constructor"
    },
    {
      "anonymous": false,
      "inputs": [
        {
          "indexed": true,
          "internalType": "bytes32",
          "name": "role",
          "type": "bytes32"
        },
        {
          "indexed": true,
          "internalType": "bytes32",
          "name": "previousAdminRole",
          "type": "bytes32"
        },
        {
          "indexed": true,
          "internalType": "bytes32",
          "name": "newAdminRole",
          "type": "bytes32"
        }
      ],
      "name": "RoleAdminChanged",
      "type": "event"
    },
    {
      "anonymous": false,
      "inputs": [
        {
          "indexed": true,
          "internalType": "bytes32",
          "name": "role",
          "type": "bytes32"
        },
        {
          "indexed": true,
          "internalType": "address",
          "name": "account",
          "type": "address"
        },
        {
          "indexed": true,
          "internalType": "address",
          "name": "sender",
          "type": "address"
        }
      ],
      "name": "RoleGranted",
      "type": "event"
    },
    {
      "anonymous": false,
      "inputs": [
        {
          "indexed": true,
          "internalType": "bytes32",
          "name": "role",
          "type": "bytes32"
        },
        {
          "indexed": true,
          "internalType": "address",
          "name": "account",
          "type": "address"
        },
        {
          "indexed": true,
          "internalType": "address",
          "name": "sender",
          "type": "address"
        }
      ],
      "name": "RoleRevoked",
      "type": "event"
    },
    {
      "inputs": [],
      "name": "APPROVER_ROLE",
      "outputs": [
        {
          "internalType": "bytes32",
          "name": "",
          "type": "bytes32"
        }
      ],
      "stateMutability": "view",
      "type": "function",
      "constant": true
    },
    {
      "inputs": [],
      "name": "DEFAULT_ADMIN_ROLE",
      "outputs": [
        {
          "internalType": "bytes32",
          "name": "",
          "type": "bytes32"
        }
      ],
      "stateMutability": "view",
      "type": "function",
      "constant": true
    },
    {
      "inputs": [],
      "name": "MINTER_ROLE",
      "outputs": [
        {
          "internalType": "bytes32",
          "name": "",
          "type": "bytes32"
        }
      ],
      "stateMutability": "view",
      "type": "function",
      "constant": true
    },
    {
      "inputs": [
        {
          "internalType": "bytes32",
          "name": "role",
          "type": "bytes32"
        }
      ],
      "name": "getRoleAdmin",
      "outputs": [
        {
          "internalType": "bytes32",
          "name": "",
          "type": "bytes32"
        }
      ],
      "stateMutability": "view",
      "type": "function",
      "constant": true
    },
    {
      "inputs": [
        {
          "internalType": "bytes32",
          "name": "role",
          "type": "bytes32"
        },
        {
          "internalType": "address",
          "name": "account",
          "type": "address"
        }
      ],
      "name": "grantRole",
      "outputs": [],
      "stateMutability": "nonpayable",
      "type": "function"
    },
    {
      "inputs": [
        {
          "internalType": "bytes32",
          "name": "role",
          "type": "bytes32"
        },
        {
          "internalType": "address",
          "name": "account",
          "type": "address"
        }
      ],
      "name": "hasRole",
      "outputs": [
        {
          "internalType": "bool",
          "name": "",
          "type": "bool"
        }
      ],
      "stateMutability": "view",
      "type": "function",
      "constant": true
    },
    {
      "inputs": [
        {
          "internalType": "address",
          "name": "",
          "type": "address"
        }
      ],
      "name": "mintAllowances",
      "outputs": [
        {
          "internalType": "address",
          "name": "minter",
          "type": "address"
        },
        {
          "internalType": "address",
          "name": "approver",
          "type": "address"
        },
        {
          "internalType": "uint256",
          "name": "amount",
          "type": "uint256"
        }
      ],
      "stateMutability": "view",
      "type": "function",
      "constant": true
    },
    {
      "inputs": [
        {
          "internalType": "bytes32",
          "name": "role",
          "type": "bytes32"
        },
        {
          "internalType": "address",
          "name": "account",
          "type": "address"
        }
      ],
      "name": "renounceRole",
      "outputs": [],
      "stateMutability": "nonpayable",
      "type": "function"
    },
    {
      "inputs": [
        {
          "internalType": "bytes32",
          "name": "role",
          "type": "bytes32"
        },
        {
          "internalType": "address",
          "name": "account",
          "type": "address"
        }
      ],
      "name": "revokeRole",
      "outputs": [],
      "stateMutability": "nonpayable",
      "type": "function"
    },
    {
      "inputs": [
        {
          "internalType": "bytes4",
          "name": "interfaceId",
          "type": "bytes4"
        }
      ],
      "name": "supportsInterface",
      "outputs": [
        {
          "internalType": "bool",
          "name": "",
          "type": "bool"
        }
      ],
      "stateMutability": "view",
      "type": "function",
      "constant": true
    },
    {
      "inputs": [],
      "name": "token",
      "outputs": [
        {
          "internalType": "contract IERC20Minter",
          "name": "",
          "type": "address"
        }
      ],
      "stateMutability": "view",
      "type": "function",
      "constant": true
    },
    {
      "inputs": [
        {
          "internalType": "address",
          "name": "account",
          "type": "address"
        },
        {
          "internalType": "uint256",
          "name": "amount",
          "type": "uint256"
        }
      ],
      "name": "requestMint",
      "outputs": [
        {
          "internalType": "bool",
          "name": "",
          "type": "bool"
        }
      ],
      "stateMutability": "nonpayable",
      "type": "function"
    },
    {
      "inputs": [
        {
          "internalType": "address",
          "name": "account",
          "type": "address"
        },
        {
          "internalType": "uint256",
          "name": "amount",
          "type": "uint256"
        }
      ],
      "name": "approveMint",
      "outputs": [
        {
          "internalType": "bool",
          "name": "",
          "type": "bool"
        }
      ],
      "stateMutability": "nonpayable",
      "type": "function"
    },
    {
      "inputs": [
        {
          "internalType": "address",
          "name": "account",
          "type": "address"
        },
        {
          "internalType": "uint256",
          "name": "amount",
          "type": "uint256"
        }
      ],
      "name": "mint",
      "outputs": [
        {
          "internalType": "bool",
          "name": "",
          "type": "bool"
        }
      ],
      "stateMutability": "nonpayable",
      "type": "function"
    }
  ],
  "bytecode": "0x60806040523480156200001157600080fd5b5060405162001d6238038062001d62833981810160405281019062000037919062000224565b80600160006101000a81548173ffffffffffffffffffffffffffffffffffffffff021916908373ffffffffffffffffffffffffffffffffffffffff1602179055506200008d6000801b336200009460201b60201c565b506200029e565b620000a68282620000aa60201b60201c565b5050565b620000bc82826200019b60201b60201c565b6200019757600160008084815260200190815260200160002060000160008373ffffffffffffffffffffffffffffffffffffffff1673ffffffffffffffffffffffffffffffffffffffff16815260200190815260200160002060006101000a81548160ff0219169083151502179055506200013c6200020560201b60201c565b73ffffffffffffffffffffffffffffffffffffffff168173ffffffffffffffffffffffffffffffffffffffff16837f2f8788117e7eff1d82e926ec794901d17c78024a50270940304540a733656f0d60405160405180910390a45b5050565b600080600084815260200190815260200160002060000160008373ffffffffffffffffffffffffffffffffffffffff1673ffffffffffffffffffffffffffffffffffffffff16815260200190815260200160002060009054906101000a900460ff16905092915050565b600033905090565b6000815190506200021e8162000284565b92915050565b6000602082840312156200023757600080fd5b600062000247848285016200020d565b91505092915050565b60006200025d8262000264565b9050919050565b600073ffffffffffffffffffffffffffffffffffffffff82169050919050565b6200028f8162000250565b81146200029b57600080fd5b50565b611ab480620002ae6000396000f3fe608060405234801561001057600080fd5b50600436106100ea5760003560e01c80634245962b1161008c578063a217fddf11610066578063a217fddf14610297578063d5391393146102b5578063d547741f146102d3578063fc0c546a146102ef576100ea565b80634245962b14610217578063788fd4921461023557806391d1485414610267576100ea565b80632f2ff15d116100c85780632f2ff15d1461017f57806331a02bce1461019b57806336568abe146101cb57806340c10f19146101e7576100ea565b806301ffc9a7146100ef57806313b39b9c1461011f578063248a9ca31461014f575b600080fd5b61010960048036038101906101049190611347565b61030d565b60405161011691906115b4565b60405180910390f35b610139600480360381019061013491906112a6565b610387565b60405161014691906115b4565b60405180910390f35b610169600480360381019061016491906112e2565b61063b565b60405161017691906115cf565b60405180910390f35b6101996004803603810190610194919061130b565b61065a565b005b6101b560048036038101906101b091906112a6565b610683565b6040516101c291906115b4565b60405180910390f35b6101e560048036038101906101e0919061130b565b610937565b005b61020160048036038101906101fc91906112a6565b6109ba565b60405161020e91906115b4565b60405180910390f35b61021f610aed565b60405161022c91906115cf565b60405180910390f35b61024f600480360381019061024a919061127d565b610b11565b60405161025e93929190611554565b60405180910390f35b610281600480360381019061027c919061130b565b610b7b565b60405161028e91906115b4565b60405180910390f35b61029f610be5565b6040516102ac91906115cf565b60405180910390f35b6102bd610bec565b6040516102ca91906115cf565b60405180910390f35b6102ed60048036038101906102e8919061130b565b610c10565b005b6102f7610c39565b60405161030491906115ea565b60405180910390f35b60007f7965db0b000000000000000000000000000000000000000000000000000000007bffffffffffffffffffffffffffffffffffffffffffffffffffffffff1916827bffffffffffffffffffffffffffffffffffffffffffffffffffffffff19161480610380575061037f82610c5f565b5b9050919050565b60006103b37f408a36151f841709116a4e8aca4e0202874f7f54687dcb863b1ea4672dc9d8cf33610b7b565b6103f2576040517f08c379a00000000000000000000000000000000000000000000000000000000081526004016103e990611647565b60405180910390fd5b6000600260008573ffffffffffffffffffffffffffffffffffffffff1673ffffffffffffffffffffffffffffffffffffffff1681526020019081526020016000206002015411156104c65781600260008573ffffffffffffffffffffffffffffffffffffffff1673ffffffffffffffffffffffffffffffffffffffff16815260200190815260200160002060020154146104c1576040517f08c379a00000000000000000000000000000000000000000000000000000000081526004016104b890611667565b60405180910390fd5b61050e565b81600260008573ffffffffffffffffffffffffffffffffffffffff1673ffffffffffffffffffffffffffffffffffffffff168152602001908152602001600020600201819055505b33600260008573ffffffffffffffffffffffffffffffffffffffff1673ffffffffffffffffffffffffffffffffffffffff16815260200190815260200160002060010160006101000a81548173ffffffffffffffffffffffffffffffffffffffff021916908373ffffffffffffffffffffffffffffffffffffffff160217905550600073ffffffffffffffffffffffffffffffffffffffff16600260008573ffffffffffffffffffffffffffffffffffffffff1673ffffffffffffffffffffffffffffffffffffffff16815260200190815260200160002060000160009054906101000a900473ffffffffffffffffffffffffffffffffffffffff1673ffffffffffffffffffffffffffffffffffffffff16146106315761062f83836109ba565b505b6001905092915050565b6000806000838152602001908152602001600020600101549050919050565b6106638261063b565b6106748161066f610cc9565b610cd1565b61067e8383610d6e565b505050565b60006106af7f9f2df0fed2c77648de5860a4cc508cd0818c85b8b8a1ab4ceeef8d981c8956a633610b7b565b6106ee576040517f08c379a00000000000000000000000000000000000000000000000000000000081526004016106e590611687565b60405180910390fd5b6000600260008573ffffffffffffffffffffffffffffffffffffffff1673ffffffffffffffffffffffffffffffffffffffff1681526020019081526020016000206002015411156107c25781600260008573ffffffffffffffffffffffffffffffffffffffff1673ffffffffffffffffffffffffffffffffffffffff16815260200190815260200160002060020154146107bd576040517f08c379a00000000000000000000000000000000000000000000000000000000081526004016107b490611667565b60405180910390fd5b61080a565b81600260008573ffffffffffffffffffffffffffffffffffffffff1673ffffffffffffffffffffffffffffffffffffffff168152602001908152602001600020600201819055505b33600260008573ffffffffffffffffffffffffffffffffffffffff1673ffffffffffffffffffffffffffffffffffffffff16815260200190815260200160002060000160006101000a81548173ffffffffffffffffffffffffffffffffffffffff021916908373ffffffffffffffffffffffffffffffffffffffff160217905550600073ffffffffffffffffffffffffffffffffffffffff16600260008573ffffffffffffffffffffffffffffffffffffffff1673ffffffffffffffffffffffffffffffffffffffff16815260200190815260200160002060010160009054906101000a900473ffffffffffffffffffffffffffffffffffffffff1673ffffffffffffffffffffffffffffffffffffffff161461092d5761092b83836109ba565b505b6001905092915050565b61093f610cc9565b73ffffffffffffffffffffffffffffffffffffffff168173ffffffffffffffffffffffffffffffffffffffff16146109ac576040517f08c379a00000000000000000000000000000000000000000000000000000000081526004016109a3906116a7565b60405180910390fd5b6109b68282610e4e565b5050565b6000600160009054906101000a900473ffffffffffffffffffffffffffffffffffffffff1673ffffffffffffffffffffffffffffffffffffffff166340c10f1984846040518363ffffffff1660e01b8152600401610a1992919061158b565b600060405180830381600087803b158015610a3357600080fd5b505af1158015610a47573d6000803e3d6000fd5b50505050600260008473ffffffffffffffffffffffffffffffffffffffff1673ffffffffffffffffffffffffffffffffffffffff168152602001908152602001600020600080820160006101000a81549073ffffffffffffffffffffffffffffffffffffffff02191690556001820160006101000a81549073ffffffffffffffffffffffffffffffffffffffff0219169055600282016000905550506001905092915050565b7f408a36151f841709116a4e8aca4e0202874f7f54687dcb863b1ea4672dc9d8cf81565b60026020528060005260406000206000915090508060000160009054906101000a900473ffffffffffffffffffffffffffffffffffffffff16908060010160009054906101000a900473ffffffffffffffffffffffffffffffffffffffff16908060020154905083565b600080600084815260200190815260200160002060000160008373ffffffffffffffffffffffffffffffffffffffff1673ffffffffffffffffffffffffffffffffffffffff16815260200190815260200160002060009054906101000a900460ff16905092915050565b6000801b81565b7f9f2df0fed2c77648de5860a4cc508cd0818c85b8b8a1ab4ceeef8d981c8956a681565b610c198261063b565b610c2a81610c25610cc9565b610cd1565b610c348383610e4e565b505050565b600160009054906101000a900473ffffffffffffffffffffffffffffffffffffffff1681565b60007f01ffc9a7000000000000000000000000000000000000000000000000000000007bffffffffffffffffffffffffffffffffffffffffffffffffffffffff1916827bffffffffffffffffffffffffffffffffffffffffffffffffffffffff1916149050919050565b600033905090565b610cdb8282610b7b565b610d6a57610d008173ffffffffffffffffffffffffffffffffffffffff166014610f2f565b610d0e8360001c6020610f2f565b604051602001610d1f92919061151a565b6040516020818303038152906040526040517f08c379a0000000000000000000000000000000000000000000000000000000008152600401610d619190611605565b60405180910390fd5b5050565b610d788282610b7b565b610e4a57600160008084815260200190815260200160002060000160008373ffffffffffffffffffffffffffffffffffffffff1673ffffffffffffffffffffffffffffffffffffffff16815260200190815260200160002060006101000a81548160ff021916908315150217905550610def610cc9565b73ffffffffffffffffffffffffffffffffffffffff168173ffffffffffffffffffffffffffffffffffffffff16837f2f8788117e7eff1d82e926ec794901d17c78024a50270940304540a733656f0d60405160405180910390a45b5050565b610e588282610b7b565b15610f2b57600080600084815260200190815260200160002060000160008373ffffffffffffffffffffffffffffffffffffffff1673ffffffffffffffffffffffffffffffffffffffff16815260200190815260200160002060006101000a81548160ff021916908315150217905550610ed0610cc9565b73ffffffffffffffffffffffffffffffffffffffff168173ffffffffffffffffffffffffffffffffffffffff16837ff6391f5c32d9c69d2a47ea670b442974b53935d1edc7fd64eb21e047a839171b60405160405180910390a45b5050565b606060006002836002610f429190611744565b610f4c91906116ee565b67ffffffffffffffff811115610f8b577f4e487b7100000000000000000000000000000000000000000000000000000000600052604160045260246000fd5b6040519080825280601f01601f191660200182016040528015610fbd5781602001600182028036833780820191505090505b5090507f30000000000000000000000000000000000000000000000000000000000000008160008151811061101b577f4e487b7100000000000000000000000000000000000000000000000000000000600052603260045260246000fd5b60200101907effffffffffffffffffffffffffffffffffffffffffffffffffffffffffffff1916908160001a9053507f7800000000000000000000000000000000000000000000000000000000000000816001815181106110a5577f4e487b7100000000000000000000000000000000000000000000000000000000600052603260045260246000fd5b60200101907effffffffffffffffffffffffffffffffffffffffffffffffffffffffffffff1916908160001a905350600060018460026110e59190611744565b6110ef91906116ee565b90505b60018111156111db577f3031323334353637383961626364656600000000000000000000000000000000600f861660108110611157577f4e487b7100000000000000000000000000000000000000000000000000000000600052603260045260246000fd5b1a60f81b828281518110611194577f4e487b7100000000000000000000000000000000000000000000000000000000600052603260045260246000fd5b60200101907effffffffffffffffffffffffffffffffffffffffffffffffffffffffffffff1916908160001a905350600485901c9450806111d490611873565b90506110f2565b506000841461121f576040517f08c379a000000000000000000000000000000000000000000000000000000000815260040161121690611627565b60405180910390fd5b8091505092915050565b60008135905061123881611a22565b92915050565b60008135905061124d81611a39565b92915050565b60008135905061126281611a50565b92915050565b60008135905061127781611a67565b92915050565b60006020828403121561128f57600080fd5b600061129d84828501611229565b91505092915050565b600080604083850312156112b957600080fd5b60006112c785828601611229565b92505060206112d885828601611268565b9150509250929050565b6000602082840312156112f457600080fd5b60006113028482850161123e565b91505092915050565b6000806040838503121561131e57600080fd5b600061132c8582860161123e565b925050602061133d85828601611229565b9150509250929050565b60006020828403121561135957600080fd5b600061136784828501611253565b91505092915050565b6113798161179e565b82525050565b611388816117b0565b82525050565b611397816117bc565b82525050565b6113a68161181c565b82525050565b60006113b7826116c7565b6113c181856116d2565b93506113d1818560208601611840565b6113da816118cc565b840191505092915050565b60006113f0826116c7565b6113fa81856116e3565b935061140a818560208601611840565b80840191505092915050565b60006114236020836116d2565b915061142e826118dd565b602082019050919050565b6000611446601a836116d2565b915061145182611906565b602082019050919050565b6000611469601d836116d2565b91506114748261192f565b602082019050919050565b600061148c6018836116d2565b915061149782611958565b602082019050919050565b60006114af6017836116e3565b91506114ba82611981565b601782019050919050565b60006114d26011836116e3565b91506114dd826119aa565b601182019050919050565b60006114f5602f836116d2565b9150611500826119d3565b604082019050919050565b61151481611812565b82525050565b6000611525826114a2565b915061153182856113e5565b915061153c826114c5565b915061154882846113e5565b91508190509392505050565b60006060820190506115696000830186611370565b6115766020830185611370565b611583604083018461150b565b949350505050565b60006040820190506115a06000830185611370565b6115ad602083018461150b565b9392505050565b60006020820190506115c9600083018461137f565b92915050565b60006020820190506115e4600083018461138e565b92915050565b60006020820190506115ff600083018461139d565b92915050565b6000602082019050818103600083015261161f81846113ac565b905092915050565b6000602082019050818103600083015261164081611416565b9050919050565b6000602082019050818103600083015261166081611439565b9050919050565b600060208201905081810360008301526116808161145c565b9050919050565b600060208201905081810360008301526116a08161147f565b9050919050565b600060208201905081810360008301526116c0816114e8565b9050919050565b600081519050919050565b600082825260208201905092915050565b600081905092915050565b60006116f982611812565b915061170483611812565b9250827fffffffffffffffffffffffffffffffffffffffffffffffffffffffffffffffff038211156117395761173861189d565b5b828201905092915050565b600061174f82611812565b915061175a83611812565b9250817fffffffffffffffffffffffffffffffffffffffffffffffffffffffffffffffff04831182151516156117935761179261189d565b5b828202905092915050565b60006117a9826117f2565b9050919050565b60008115159050919050565b6000819050919050565b60007fffffffff0000000000000000000000000000000000000000000000000000000082169050919050565b600073ffffffffffffffffffffffffffffffffffffffff82169050919050565b6000819050919050565b60006118278261182e565b9050919050565b6000611839826117f2565b9050919050565b60005b8381101561185e578082015181840152602081019050611843565b8381111561186d576000848401525b50505050565b600061187e82611812565b915060008214156118925761189161189d565b5b600182039050919050565b7f4e487b7100000000000000000000000000000000000000000000000000000000600052601160045260246000fd5b6000601f19601f8301169050919050565b7f537472696e67733a20686578206c656e67746820696e73756666696369656e74600082015250565b7f546f6b656e4d696e7465723a206f6e6c7920617070726f766572000000000000600082015250565b7f546f6b656e4d696e7465723a20646966666572656e7420616d6f756e74000000600082015250565b7f546f6b656e4d696e7465723a206f6e6c79206d696e7465720000000000000000600082015250565b7f416363657373436f6e74726f6c3a206163636f756e7420000000000000000000600082015250565b7f206973206d697373696e6720726f6c6520000000000000000000000000000000600082015250565b7f416363657373436f6e74726f6c3a2063616e206f6e6c792072656e6f756e636560008201527f20726f6c657320666f722073656c660000000000000000000000000000000000602082015250565b611a2b8161179e565b8114611a3657600080fd5b50565b611a42816117bc565b8114611a4d57600080fd5b50565b611a59816117c6565b8114611a6457600080fd5b50565b611a7081611812565b8114611a7b57600080fd5b5056fea2646970667358221220b8f1ab0a94afcfc7dcafc3e2972dde77af352d68f2331d286421e8fa902d0eb664736f6c63430008040033",
  "immutableReferences": {},
  "source": "// SPDX-License-Identifier: MIT\r\npragma solidity 0.8.4;\r\n\r\nimport '@openzeppelin/contracts/access/AccessControl.sol';\r\n\r\ninterface IERC20Minter {\r\n    function name() external view returns (string memory);\r\n    function symbol() external view returns (string memory);\r\n    function decimals() external view returns (uint8);\r\n    function totalSupply() external view returns (uint256);\r\n    function balanceOf(address account) external view returns (uint256);\r\n    function transfer(address recipient, uint256 amount) external returns (bool);\r\n    function allowance(address owner, address spender) external view returns (uint256);\r\n    function approve(address spender, uint256 amount) external returns (bool);\r\n    function transferFrom(address sender, address recipient, uint256 amount) external returns (bool);\r\n    function mint(address account, uint256 amount) external;\r\n    event Transfer(address indexed from, address indexed to, uint256 value);\r\n    event Approval(address indexed owner, address indexed spender, uint256 value);\r\n}\r\n\r\n\r\ncontract TokenMinterApprover is AccessControl {\r\n    \r\n    bytes32 public constant MINTER_ROLE = keccak256(\"MINTER_ROLE\");\r\n    bytes32 public constant APPROVER_ROLE = keccak256(\"APPROVER_ROLE\");\r\n    IERC20Minter public token;\r\n    \r\n    struct ApproveStruct {\r\n        address minter;\r\n        address approver;\r\n        uint256 amount;\r\n    }\r\n    mapping (address => ApproveStruct) public mintAllowances;\r\n\r\n    constructor(address tokenAddress) {\r\n        token = IERC20Minter(tokenAddress);\r\n        _setupRole(DEFAULT_ADMIN_ROLE, msg.sender);\r\n    }\r\n    \r\n    modifier onlyMinter() {\r\n        require(hasRole(MINTER_ROLE, msg.sender), \"TokenMinter: only minter\");\r\n      _;\r\n    }    \r\n    \r\n    modifier onlyApprover() {\r\n        require(hasRole(APPROVER_ROLE, msg.sender), \"TokenMinter: only approver\");\r\n      _;\r\n    }\r\n\r\n    function requestMint(address account, uint256 amount) public onlyMinter returns (bool) {\r\n        if (mintAllowances[account].amount > 0) {\r\n            require (mintAllowances[account].amount == amount, \"TokenMinter: different amount\");\r\n        }\r\n        else {\r\n            mintAllowances[account].amount = amount;\r\n        }\r\n        mintAllowances[account].minter = msg.sender;\r\n        if (mintAllowances[account].approver != address(0x0)) {\r\n            mint(account, amount);\r\n        }\r\n        return true;\r\n    }\r\n    \r\n    function approveMint(address account, uint256 amount) public onlyApprover returns (bool) {\r\n        if (mintAllowances[account].amount > 0) {\r\n            require (mintAllowances[account].amount == amount, \"TokenMinter: different amount\");\r\n        }\r\n        else {\r\n            mintAllowances[account].amount = amount;\r\n        }\r\n        mintAllowances[account].approver = msg.sender;\r\n        if (mintAllowances[account].minter != address(0x0)) {\r\n            mint(account, amount);\r\n        }\r\n        return true;\r\n    }\r\n    \r\n    function mint(address account, uint256 amount) public returns (bool) {\r\n        token.mint(account, amount);\r\n        delete mintAllowances[account];\r\n        return true;\r\n    }\r\n}",
  "sourcePath": "C:/BLOCKCHAIN/TRANSFERO/token-minter-approver/contracts/TokenMinterApprover.sol",
  "compiler": {
    "name": "solc",
    "version": "0.8.4+commit.c7e474f2.Emscripten.clang"
  },
  "schemaVersion": "3.4.1",
  "updatedAt": "2021-07-06T02:49:35.851Z",
  "networkType": "ethereum",
  "devdoc": {
    "kind": "dev",
    "methods": {
      "getRoleAdmin(bytes32)": {
        "details": "Returns the admin role that controls `role`. See {grantRole} and {revokeRole}. To change a role's admin, use {_setRoleAdmin}."
      },
      "grantRole(bytes32,address)": {
        "details": "Grants `role` to `account`. If `account` had not been already granted `role`, emits a {RoleGranted} event. Requirements: - the caller must have ``role``'s admin role."
      },
      "hasRole(bytes32,address)": {
        "details": "Returns `true` if `account` has been granted `role`."
      },
      "renounceRole(bytes32,address)": {
        "details": "Revokes `role` from the calling account. Roles are often managed via {grantRole} and {revokeRole}: this function's purpose is to provide a mechanism for accounts to lose their privileges if they are compromised (such as when a trusted device is misplaced). If the calling account had been granted `role`, emits a {RoleRevoked} event. Requirements: - the caller must be `account`."
      },
      "revokeRole(bytes32,address)": {
        "details": "Revokes `role` from `account`. If `account` had been granted `role`, emits a {RoleRevoked} event. Requirements: - the caller must have ``role``'s admin role."
      },
      "supportsInterface(bytes4)": {
        "details": "See {IERC165-supportsInterface}."
      }
    },
    "version": 1
  },
  "userdoc": {
    "kind": "user",
    "methods": {},
    "version": 1
  }
}